{
  "contractName": "RBAC",
  "abi": [
    {
      "constant": true,
      "inputs": [
        {
          "name": "",
          "type": "address"
        }
      ],
      "name": "permissions",
      "outputs": [
        {
          "name": "",
          "type": "uint256"
        }
      ],
      "payable": false,
      "stateMutability": "view",
      "type": "function"
    },
    {
      "constant": true,
      "inputs": [
        {
          "name": "",
          "type": "uint256"
        }
      ],
      "name": "rolesKeys",
      "outputs": [
        {
          "name": "",
          "type": "bytes32"
        }
      ],
      "payable": false,
      "stateMutability": "view",
      "type": "function"
    },
    {
      "constant": false,
      "inputs": [],
      "name": "renounceOwnership",
      "outputs": [],
      "payable": false,
      "stateMutability": "nonpayable",
      "type": "function"
    },
    {
      "constant": true,
      "inputs": [],
      "name": "owner",
      "outputs": [
        {
          "name": "",
          "type": "address"
        }
      ],
      "payable": false,
      "stateMutability": "view",
      "type": "function"
    },
    {
      "constant": true,
      "inputs": [],
      "name": "isOwner",
      "outputs": [
        {
          "name": "",
          "type": "bool"
        }
      ],
      "payable": false,
      "stateMutability": "view",
      "type": "function"
    },
    {
      "constant": true,
      "inputs": [
        {
          "name": "",
          "type": "bytes32"
        }
      ],
      "name": "roles",
      "outputs": [
        {
          "name": "",
          "type": "uint256"
        }
      ],
      "payable": false,
      "stateMutability": "view",
      "type": "function"
    },
    {
      "constant": false,
      "inputs": [
        {
          "name": "newOwner",
          "type": "address"
        }
      ],
      "name": "transferOwnership",
      "outputs": [],
      "payable": false,
      "stateMutability": "nonpayable",
      "type": "function"
    },
    {
      "anonymous": false,
      "inputs": [
        {
          "indexed": true,
          "name": "previousOwner",
          "type": "address"
        },
        {
          "indexed": true,
          "name": "newOwner",
          "type": "address"
        }
      ],
      "name": "OwnershipTransferred",
      "type": "event"
    },
    {
      "constant": false,
      "inputs": [
        {
          "name": "_role",
          "type": "bytes32"
        }
      ],
      "name": "createRole",
      "outputs": [],
      "payable": false,
      "stateMutability": "nonpayable",
      "type": "function"
    },
    {
      "constant": false,
      "inputs": [
        {
          "name": "_address",
          "type": "address"
        },
        {
          "name": "_role",
          "type": "bytes32"
        }
      ],
      "name": "addRoleToAccount",
      "outputs": [],
      "payable": false,
      "stateMutability": "nonpayable",
      "type": "function"
    },
    {
      "constant": false,
      "inputs": [
        {
          "name": "_address",
          "type": "address"
        }
      ],
      "name": "cleanRolesForAccount",
      "outputs": [],
      "payable": false,
      "stateMutability": "nonpayable",
      "type": "function"
    },
    {
      "constant": true,
      "inputs": [
        {
          "name": "_address",
          "type": "address"
        },
        {
          "name": "_role",
          "type": "bytes32"
        }
      ],
      "name": "hasRole",
      "outputs": [
        {
          "name": "_hasRole",
          "type": "bool"
        }
      ],
      "payable": false,
      "stateMutability": "view",
      "type": "function"
    }
  ],
  "bytecode": "0x6080604081905260008054600160a060020a0319163317808255600160a060020a0316917f8be0079c531659141344cd1fd0a4f28419497f9722a3daafe3b4186f6b6457e0908290a3610692806100576000396000f3fe608060405234801561001057600080fd5b50600436106100c6576000357c010000000000000000000000000000000000000000000000000000000090048063953566511161008e578063953566511461016a578063ac4ab3fb14610187578063c2e86735146101b3578063c42994a2146101df578063f2fde38b146101fc578063f566e10e14610222576100c6565b806301e88208146100cb5780632cf88d9e14610103578063715018a6146101205780638da5cb5b1461012a5780638f32d59b1461014e575b600080fd5b6100f1600480360360208110156100e157600080fd5b5035600160a060020a0316610248565b60408051918252519081900360200190f35b6100f16004803603602081101561011957600080fd5b503561025a565b610128610278565b005b610132610319565b60408051600160a060020a039092168252519081900360200190f35b610156610328565b604080519115158252519081900360200190f35b6100f16004803603602081101561018057600080fd5b5035610339565b6101566004803603604081101561019d57600080fd5b50600160a060020a03813516906020013561034b565b610128600480360360408110156101c957600080fd5b50600160a060020a038135169060200135610378565b610128600480360360208110156101f557600080fd5b5035610409565b6101286004803603602081101561021257600080fd5b5035600160a060020a03166104b6565b6101286004803603602081101561023857600080fd5b5035600160a060020a031661050c565b60036020526000908152604090205481565b6002818154811061026757fe5b600091825260209091200154905081565b610280610328565b6102c2576040805160e560020a62461bcd0281526020600482018190526024820152600080516020610647833981519152604482015290519081900360640190fd5b60008054604051600160a060020a03909116907f8be0079c531659141344cd1fd0a4f28419497f9722a3daafe3b4186f6b6457e0908390a36000805473ffffffffffffffffffffffffffffffffffffffff19169055565b600054600160a060020a031690565b600054600160a060020a0316331490565b60016020526000908152604090205481565b600090815260016020908152604080832054600160a060020a039094168352600390915290205416151590565b610380610328565b6103c2576040805160e560020a62461bcd0281526020600482018190526024820152600080516020610647833981519152604482015290519081900360640190fd5b6000818152600160205260409020546103da57600080fd5b600090815260016020908152604080832054600160a060020a0390941683526003909152902080549091179055565b610411610328565b610453576040805160e560020a62461bcd0281526020600482018190526024820152600080516020610647833981519152604482015290519081900360640190fd5b6000818152600160205260409020541561046c57600080fd5b600280546000838152600160208190526040822092840a90925582549182018355919091527f405787fa12a823e0f2b7631cc41b3ba8828b3321ca811111fa75cd3aa3bb5ace0155565b6104be610328565b610500576040805160e560020a62461bcd0281526020600482018190526024820152600080516020610647833981519152604482015290519081900360640190fd5b61050981610570565b50565b610514610328565b610556576040805160e560020a62461bcd0281526020600482018190526024820152600080516020610647833981519152604482015290519081900360640190fd5b600160a060020a0316600090815260036020526040812055565b600160a060020a0381166105b85760405160e560020a62461bcd0281526004018080602001828103825260268152602001806106216026913960400191505060405180910390fd5b60008054604051600160a060020a03808516939216917f8be0079c531659141344cd1fd0a4f28419497f9722a3daafe3b4186f6b6457e091a36000805473ffffffffffffffffffffffffffffffffffffffff1916600160a060020a039290921691909117905556fe4f776e61626c653a206e6577206f776e657220697320746865207a65726f20616464726573734f776e61626c653a2063616c6c6572206973206e6f7420746865206f776e6572a165627a7a72305820e0d186994248b64779ba1468194a5504b261bd962c74eb497dc8189c88efd1650029",
  "source": "pragma solidity 0.5.8;\n\nimport \"openzeppelin-solidity/contracts/ownership/Ownable.sol\";\n\ncontract RBAC is Ownable {\n    mapping(bytes32 => uint256) public roles;\n    bytes32[] public rolesKeys;\n\n    mapping(address => uint256) public permissions;\n\n    modifier onlyWithRole(bytes32 _role) {\n        require(hasRole(msg.sender, _role));\n        _;\n    }\n\n    function createRole(bytes32 _role) public onlyOwner {\n        require(roles[_role] == 0);\n        // todo: check overflow\n        roles[_role] = 1 << rolesKeys.length;\n        rolesKeys.push(_role);\n    }\n\n    function addRoleToAccount(address _address, bytes32 _role) public onlyOwner {\n        require(roles[_role] != 0);\n\n        permissions[_address] = permissions[_address] | roles[_role];\n    }\n\n    function cleanRolesForAccount(address _address) public onlyOwner {\n        delete permissions[_address];\n    }\n\n    function hasRole(address _address, bytes32 _role)\n        public\n        view\n        returns (bool _hasRole)\n    {\n        _hasRole = (permissions[_address] & roles[_role]) > 0;\n    }\n}\n",
  "sourcePath": "/home/ubuntu/etherisc/GIF/core/gif-contracts/contracts/shared/RBAC.sol",
  "compiler": {
    "name": "solc",
    "version": "0.5.8+commit.23d335f2.Emscripten.clang"
  },
  "schemaVersion": "3.0.15",
  "updatedAt": "2019-09-07T18:43:29.045Z",
  "devdoc": {
    "methods": {
      "isOwner()": {
        "details": "Returns true if the caller is the current owner."
      },
      "owner()": {
        "details": "Returns the address of the current owner."
      },
      "renounceOwnership()": {
        "details": "Leaves the contract without owner. It will not be possible to call `onlyOwner` functions anymore. Can only be called by the current owner.     * > Note: Renouncing ownership will leave the contract without an owner, thereby removing any functionality that is only available to the owner."
      },
      "transferOwnership(address)": {
        "details": "Transfers ownership of the contract to a new account (`newOwner`). Can only be called by the current owner."
      }
    }
  },
  "userdoc": {
    "methods": {}
  }
}