{
  "contractName": "SimpleProduct",
  "abi": [
    {
      "constant": true,
      "inputs": [
        {
          "name": "",
          "type": "address"
        }
      ],
      "name": "permissions",
      "outputs": [
        {
          "name": "",
          "type": "uint256"
        }
      ],
      "payable": false,
      "stateMutability": "view",
      "type": "function"
    },
    {
      "constant": true,
      "inputs": [],
      "name": "POLICY_FLOW",
      "outputs": [
        {
          "name": "",
          "type": "bytes32"
        }
      ],
      "payable": false,
      "stateMutability": "view",
      "type": "function"
    },
    {
      "constant": true,
      "inputs": [],
      "name": "maintenanceMode",
      "outputs": [
        {
          "name": "",
          "type": "bool"
        }
      ],
      "payable": false,
      "stateMutability": "view",
      "type": "function"
    },
    {
      "constant": true,
      "inputs": [
        {
          "name": "",
          "type": "uint256"
        }
      ],
      "name": "rolesKeys",
      "outputs": [
        {
          "name": "",
          "type": "bytes32"
        }
      ],
      "payable": false,
      "stateMutability": "view",
      "type": "function"
    },
    {
      "constant": false,
      "inputs": [],
      "name": "renounceOwnership",
      "outputs": [],
      "payable": false,
      "stateMutability": "nonpayable",
      "type": "function"
    },
    {
      "constant": true,
      "inputs": [],
      "name": "owner",
      "outputs": [
        {
          "name": "",
          "type": "address"
        }
      ],
      "payable": false,
      "stateMutability": "view",
      "type": "function"
    },
    {
      "constant": true,
      "inputs": [],
      "name": "isOwner",
      "outputs": [
        {
          "name": "",
          "type": "bool"
        }
      ],
      "payable": false,
      "stateMutability": "view",
      "type": "function"
    },
    {
      "constant": true,
      "inputs": [
        {
          "name": "",
          "type": "bytes32"
        }
      ],
      "name": "roles",
      "outputs": [
        {
          "name": "",
          "type": "uint256"
        }
      ],
      "payable": false,
      "stateMutability": "view",
      "type": "function"
    },
    {
      "constant": true,
      "inputs": [],
      "name": "NAME",
      "outputs": [
        {
          "name": "",
          "type": "bytes32"
        }
      ],
      "payable": false,
      "stateMutability": "view",
      "type": "function"
    },
    {
      "constant": true,
      "inputs": [
        {
          "name": "_address",
          "type": "address"
        },
        {
          "name": "_role",
          "type": "bytes32"
        }
      ],
      "name": "hasRole",
      "outputs": [
        {
          "name": "_hasRole",
          "type": "bool"
        }
      ],
      "payable": false,
      "stateMutability": "view",
      "type": "function"
    },
    {
      "constant": false,
      "inputs": [
        {
          "name": "_address",
          "type": "address"
        },
        {
          "name": "_role",
          "type": "bytes32"
        }
      ],
      "name": "addRoleToAccount",
      "outputs": [],
      "payable": false,
      "stateMutability": "nonpayable",
      "type": "function"
    },
    {
      "constant": true,
      "inputs": [],
      "name": "productService",
      "outputs": [
        {
          "name": "",
          "type": "address"
        }
      ],
      "payable": false,
      "stateMutability": "view",
      "type": "function"
    },
    {
      "constant": false,
      "inputs": [
        {
          "name": "_role",
          "type": "bytes32"
        }
      ],
      "name": "createRole",
      "outputs": [],
      "payable": false,
      "stateMutability": "nonpayable",
      "type": "function"
    },
    {
      "constant": true,
      "inputs": [],
      "name": "developmentMode",
      "outputs": [
        {
          "name": "",
          "type": "bool"
        }
      ],
      "payable": false,
      "stateMutability": "view",
      "type": "function"
    },
    {
      "constant": false,
      "inputs": [
        {
          "name": "newOwner",
          "type": "address"
        }
      ],
      "name": "transferOwnership",
      "outputs": [],
      "payable": false,
      "stateMutability": "nonpayable",
      "type": "function"
    },
    {
      "constant": false,
      "inputs": [
        {
          "name": "_address",
          "type": "address"
        }
      ],
      "name": "cleanRolesForAccount",
      "outputs": [],
      "payable": false,
      "stateMutability": "nonpayable",
      "type": "function"
    },
    {
      "inputs": [
        {
          "name": "_productController",
          "type": "address"
        }
      ],
      "payable": false,
      "stateMutability": "nonpayable",
      "type": "constructor"
    },
    {
      "anonymous": false,
      "inputs": [
        {
          "indexed": false,
          "name": "applicationId",
          "type": "uint256"
        }
      ],
      "name": "NewApplication",
      "type": "event"
    },
    {
      "anonymous": false,
      "inputs": [
        {
          "indexed": false,
          "name": "policyId",
          "type": "uint256"
        }
      ],
      "name": "NewPolicy",
      "type": "event"
    },
    {
      "anonymous": false,
      "inputs": [
        {
          "indexed": false,
          "name": "applicationId",
          "type": "uint256"
        }
      ],
      "name": "ApplicationDeclined",
      "type": "event"
    },
    {
      "anonymous": false,
      "inputs": [
        {
          "indexed": false,
          "name": "policyId",
          "type": "uint256"
        },
        {
          "indexed": false,
          "name": "claimId",
          "type": "uint256"
        }
      ],
      "name": "NewClaim",
      "type": "event"
    },
    {
      "anonymous": false,
      "inputs": [
        {
          "indexed": false,
          "name": "claimId",
          "type": "uint256"
        },
        {
          "indexed": false,
          "name": "payoutId",
          "type": "uint256"
        },
        {
          "indexed": false,
          "name": "payoutAmount",
          "type": "uint256"
        }
      ],
      "name": "NewPayout",
      "type": "event"
    },
    {
      "anonymous": false,
      "inputs": [
        {
          "indexed": false,
          "name": "policyId",
          "type": "uint256"
        }
      ],
      "name": "PolicyExpired",
      "type": "event"
    },
    {
      "anonymous": false,
      "inputs": [
        {
          "indexed": false,
          "name": "payoutId",
          "type": "uint256"
        },
        {
          "indexed": false,
          "name": "amount",
          "type": "uint256"
        }
      ],
      "name": "PayoutConfirmation",
      "type": "event"
    },
    {
      "anonymous": false,
      "inputs": [
        {
          "indexed": true,
          "name": "previousOwner",
          "type": "address"
        },
        {
          "indexed": true,
          "name": "newOwner",
          "type": "address"
        }
      ],
      "name": "OwnershipTransferred",
      "type": "event"
    },
    {
      "constant": false,
      "inputs": [
        {
          "name": "_bpExternalKey",
          "type": "bytes32"
        },
        {
          "name": "_premium",
          "type": "uint256"
        },
        {
          "name": "_currency",
          "type": "bytes32"
        },
        {
          "name": "_payoutOptions",
          "type": "uint256[]"
        }
      ],
      "name": "applyForPolicy",
      "outputs": [],
      "payable": false,
      "stateMutability": "nonpayable",
      "type": "function"
    },
    {
      "constant": false,
      "inputs": [
        {
          "name": "_applicationId",
          "type": "uint256"
        }
      ],
      "name": "underwriteApplication",
      "outputs": [],
      "payable": false,
      "stateMutability": "nonpayable",
      "type": "function"
    },
    {
      "constant": false,
      "inputs": [
        {
          "name": "_applicationId",
          "type": "uint256"
        }
      ],
      "name": "declineApplication",
      "outputs": [],
      "payable": false,
      "stateMutability": "nonpayable",
      "type": "function"
    },
    {
      "constant": false,
      "inputs": [
        {
          "name": "_policyId",
          "type": "uint256"
        }
      ],
      "name": "newClaim",
      "outputs": [],
      "payable": false,
      "stateMutability": "nonpayable",
      "type": "function"
    },
    {
      "constant": false,
      "inputs": [
        {
          "name": "_claimId",
          "type": "uint256"
        },
        {
          "name": "_payoutAmount",
          "type": "uint256"
        }
      ],
      "name": "confirmClaim",
      "outputs": [],
      "payable": false,
      "stateMutability": "nonpayable",
      "type": "function"
    },
    {
      "constant": false,
      "inputs": [
        {
          "name": "_policyId",
          "type": "uint256"
        }
      ],
      "name": "expire",
      "outputs": [],
      "payable": false,
      "stateMutability": "nonpayable",
      "type": "function"
    },
    {
      "constant": false,
      "inputs": [
        {
          "name": "_payoutId",
          "type": "uint256"
        },
        {
          "name": "_amount",
          "type": "uint256"
        }
      ],
      "name": "confirmPayout",
      "outputs": [],
      "payable": false,
      "stateMutability": "nonpayable",
      "type": "function"
    },
    {
      "constant": true,
      "inputs": [
        {
          "name": "_sum",
          "type": "uint256"
        }
      ],
      "name": "getQuote",
      "outputs": [
        {
          "name": "_premium",
          "type": "uint256"
        }
      ],
      "payable": false,
      "stateMutability": "view",
      "type": "function"
    }
  ],
  "bytecode": "0x60806040526004805461ffff1916905534801561001b57600080fd5b506040516020806117c68339810180604052602081101561003b57600080fd5b505160008054600160a060020a031916331780825560405183927f53696d706c6550726f6475637400000000000000000000000000000000000000927f506f6c696379466c6f7744656661756c7400000000000000000000000000000092600160a060020a039190911691907f8be0079c531659141344cd1fd0a4f28419497f9722a3daafe3b4186f6b6457e0908290a3600480546201000060b060020a03191662010000600160a060020a03861602179055610101828264010000000061010a810204565b505050506101ab565b60048054604080517f2f926732000000000000000000000000000000000000000000000000000000008152928301859052602483018490525162010000909104600160a060020a031691632f9267329160448083019260209291908290030181600087803b15801561017b57600080fd5b505af115801561018f573d6000803e3d6000fd5b505050506040513d60208110156101a557600080fd5b50505050565b61160c806101ba6000396000f3fe608060405234801561001057600080fd5b506004361061015c5760003560e060020a900480638f32d59b116100c7578063c37d45bf11610080578063c37d45bf146103ca578063c42994a2146103d2578063cf39918e146103ef578063d6fcaf401461040c578063f2fde38b14610414578063f566e10e1461043a5761015c565b80638f32d59b146103285780639535665114610330578063a3f4df7e1461034d578063ac4ab3fb14610355578063bf81bf4314610381578063c2e867351461039e5761015c565b80635ecdaffb116101195780635ecdaffb146102165780636afa4340146102335780636fadc51114610256578063715018a6146102d95780637f66ae95146102e15780638da5cb5b146103045761015c565b806301e882081461016157806309128d831461019957806325dce0a6146101a15780632cf88d9e146101bd57806347ece1f3146101da57806354f3a32c146101f9575b600080fd5b6101876004803603602081101561017757600080fd5b5035600160a060020a0316610460565b60408051918252519081900360200190f35b610187610472565b6101a9610496565b604080519115158252519081900360200190f35b610187600480360360208110156101d357600080fd5b50356104a4565b6101f7600480360360208110156101f057600080fd5b50356104c2565b005b6101f76004803603602081101561020f57600080fd5b50356105e4565b6101f76004803603602081101561022c57600080fd5b5035610714565b6101f76004803603604081101561024957600080fd5b508035906020013561083d565b6101f76004803603608081101561026c57600080fd5b8135916020810135916040820135919081019060808101606082013564010000000081111561029a57600080fd5b8201836020820111156102ac57600080fd5b803590602001918460208302840111640100000000831117156102ce57600080fd5b509092509050610975565b6101f7610ad8565b6101f7600480360360408110156102f757600080fd5b5080359060200135610b79565b61030c610ca6565b60408051600160a060020a039092168252519081900360200190f35b6101a9610cb5565b6101876004803603602081101561034657600080fd5b5035610cc6565b610187610cd8565b6101a96004803603604081101561036b57600080fd5b50600160a060020a038135169060200135610cfc565b6101f76004803603602081101561039757600080fd5b5035610d29565b6101f7600480360360408110156103b457600080fd5b50600160a060020a038135169060200135610e4b565b61030c610edc565b6101f7600480360360208110156103e857600080fd5b5035610ef1565b6101876004803603602081101561040557600080fd5b5035610f9e565b6101a9610fc3565b6101f76004803603602081101561042a57600080fd5b5035600160a060020a0316610fcc565b6101f76004803603602081101561045057600080fd5b5035600160a060020a0316611022565b60036020526000908152604090205481565b7f506f6c696379466c6f7744656661756c7400000000000000000000000000000081565b600454610100900460ff1681565b600281815481106104b157fe5b600091825260209091200154905081565b600460029054906101000a9004600160a060020a0316600160a060020a031663da47d8566040518163ffffffff1660e060020a02815260040180806000805160206115a1833981519152815250602001905060206040518083038186803b15801561052c57600080fd5b505afa158015610540573d6000803e3d6000fd5b505050506040513d602081101561055657600080fd5b5051600160a060020a031633146105a5576040805160e560020a62461bcd0281526020600482015260146024820152600080516020611581833981519152604482015290519081900360640190fd5b6105ae81611086565b6040805182815290517f17cdb7c4ffd36a82e37e6a8b8f6ced0a78fdd82b0b68dd35755b6fef3511c2299181900360200190a150565b600460029054906101000a9004600160a060020a0316600160a060020a031663da47d8566040518163ffffffff1660e060020a02815260040180806000805160206115a1833981519152815250602001905060206040518083038186803b15801561064e57600080fd5b505afa158015610662573d6000803e3d6000fd5b505050506040513d602081101561067857600080fd5b5051600160a060020a031633146106c7576040805160e560020a62461bcd0281526020600482015260146024820152600080516020611581833981519152604482015290519081900360640190fd5b60006106d2826110ff565b604080518481526020810183905281519293507fcb97bbaee7e6aa4ae5d3a69e8a66d1f15b6d4ebb585e5f8f26eaab86c49ae665929081900390910190a15050565b600460029054906101000a9004600160a060020a0316600160a060020a031663da47d8566040518163ffffffff1660e060020a02815260040180806000805160206115a1833981519152815250602001905060206040518083038186803b15801561077e57600080fd5b505afa158015610792573d6000803e3d6000fd5b505050506040513d60208110156107a857600080fd5b5051600160a060020a031633146107f7576040805160e560020a62461bcd0281526020600482015260146024820152600080516020611581833981519152604482015290519081900360640190fd5b600061080282611191565b6040805182815290519192507f174c94eb4ef02e690e5bd01790c284af662a414381f1c631bf388a8850a5db13919081900360200190a15050565b600460029054906101000a9004600160a060020a0316600160a060020a031663da47d8566040518163ffffffff1660e060020a02815260040180806000805160206115a1833981519152815250602001905060206040518083038186803b1580156108a757600080fd5b505afa1580156108bb573d6000803e3d6000fd5b505050506040513d60208110156108d157600080fd5b5051600160a060020a03163314610920576040805160e560020a62461bcd0281526020600482015260146024820152600080516020611581833981519152604482015290519081900360640190fd5b600061092c83836111f1565b604080518581526020810183905280820185905290519192507ff2891b2b2049ac20caebda64567475aab2ad4d50f1faa089cda0d70aaa1fb3f2919081900360600190a1505050565b600460029054906101000a9004600160a060020a0316600160a060020a031663da47d8566040518163ffffffff1660e060020a02815260040180806000805160206115a1833981519152815250602001905060206040518083038186803b1580156109df57600080fd5b505afa1580156109f3573d6000803e3d6000fd5b505050506040513d6020811015610a0957600080fd5b5051600160a060020a03163314610a58576040805160e560020a62461bcd0281526020600482015260146024820152600080516020611581833981519152604482015290519081900360640190fd5b6000610a9986868686868080602002602001604051908101604052809392919081815260200183836020028082843760009201919091525061128c92505050565b6040805182815290519192507f0ff47c4a3dc48719ecfd1876116e80d7d76ec7cb67248ae49449f9104747af29919081900360200190a1505050505050565b610ae0610cb5565b610b22576040805160e560020a62461bcd02815260206004820181905260248201526000805160206115c1833981519152604482015290519081900360640190fd5b60008054604051600160a060020a03909116907f8be0079c531659141344cd1fd0a4f28419497f9722a3daafe3b4186f6b6457e0908390a36000805473ffffffffffffffffffffffffffffffffffffffff19169055565b600460029054906101000a9004600160a060020a0316600160a060020a031663da47d8566040518163ffffffff1660e060020a02815260040180806000805160206115a1833981519152815250602001905060206040518083038186803b158015610be357600080fd5b505afa158015610bf7573d6000803e3d6000fd5b505050506040513d6020811015610c0d57600080fd5b5051600160a060020a03163314610c5c576040805160e560020a62461bcd0281526020600482015260146024820152600080516020611581833981519152604482015290519081900360640190fd5b610c668282611377565b50604080518381526020810183905281517f0ad736fbe1571767f34d1bfa0cebbaf3c0424d30452fdc42167509bb5060ad82929181900390910190a15050565b600054600160a060020a031690565b600054600160a060020a0316331490565b60016020526000908152604090205481565b7f53696d706c6550726f647563740000000000000000000000000000000000000081565b600090815260016020908152604080832054600160a060020a039094168352600390915290205416151590565b600460029054906101000a9004600160a060020a0316600160a060020a031663da47d8566040518163ffffffff1660e060020a02815260040180806000805160206115a1833981519152815250602001905060206040518083038186803b158015610d9357600080fd5b505afa158015610da7573d6000803e3d6000fd5b505050506040513d6020811015610dbd57600080fd5b5051600160a060020a03163314610e0c576040805160e560020a62461bcd0281526020600482015260146024820152600080516020611581833981519152604482015290519081900360640190fd5b610e15816113df565b6040805182815290517fb22aa541487fc93d989bb5b17d1e3a967f649c4979cfd658c0849e070ae0dca09181900360200190a150565b610e53610cb5565b610e95576040805160e560020a62461bcd02815260206004820181905260248201526000805160206115c1833981519152604482015290519081900360640190fd5b600081815260016020526040902054610ead57600080fd5b600090815260016020908152604080832054600160a060020a0390941683526003909152902080549091179055565b600454620100009004600160a060020a031681565b610ef9610cb5565b610f3b576040805160e560020a62461bcd02815260206004820181905260248201526000805160206115c1833981519152604482015290519081900360640190fd5b60008181526001602052604090205415610f5457600080fd5b600280546000838152600160208190526040822092840a90925582549182018355919091527f405787fa12a823e0f2b7631cc41b3ba8828b3321ca811111fa75cd3aa3bb5ace0155565b6000808211610fac57600080fd5b610fbd82601463ffffffff61143d16565b92915050565b60045460ff1681565b610fd4610cb5565b611016576040805160e560020a62461bcd02815260206004820181905260248201526000805160206115c1833981519152604482015290519081900360640190fd5b61101f816114aa565b50565b61102a610cb5565b61106c576040805160e560020a62461bcd02815260206004820181905260248201526000805160206115c1833981519152604482015290519081900360640190fd5b600160a060020a0316600090815260036020526040812055565b600460029054906101000a9004600160a060020a0316600160a060020a031663a0355f4e826040518263ffffffff1660e060020a02815260040180828152602001915050600060405180830381600087803b1580156110e457600080fd5b505af11580156110f8573d6000803e3d6000fd5b5050505050565b6000600460029054906101000a9004600160a060020a0316600160a060020a03166354f3a32c836040518263ffffffff1660e060020a02815260040180828152602001915050602060405180830381600087803b15801561115f57600080fd5b505af1158015611173573d6000803e3d6000fd5b505050506040513d602081101561118957600080fd5b505192915050565b6000600460029054906101000a9004600160a060020a0316600160a060020a0316636be60f8b836040518263ffffffff1660e060020a02815260040180828152602001915050602060405180830381600087803b15801561115f57600080fd5b6000600460029054906101000a9004600160a060020a0316600160a060020a0316636afa434084846040518363ffffffff1660e060020a0281526004018083815260200182815260200192505050602060405180830381600087803b15801561125957600080fd5b505af115801561126d573d6000803e3d6000fd5b505050506040513d602081101561128357600080fd5b50519392505050565b6000600460029054906101000a9004600160a060020a0316600160a060020a031663dc3addf0868686866040518563ffffffff1660e060020a0281526004018085815260200184815260200183815260200180602001828103825283818151815260200191508051906020019060200280838360005b8381101561131a578181015183820152602001611302565b5050505090500195505050505050602060405180830381600087803b15801561134257600080fd5b505af1158015611356573d6000803e3d6000fd5b505050506040513d602081101561136c57600080fd5b505195945050505050565b6000600460029054906101000a9004600160a060020a0316600160a060020a0316635aa6cf9784846040518363ffffffff1660e060020a0281526004018083815260200182815260200192505050602060405180830381600087803b15801561125957600080fd5b600460029054906101000a9004600160a060020a0316600160a060020a031663bf81bf43826040518263ffffffff1660e060020a02815260040180828152602001915050600060405180830381600087803b1580156110e457600080fd5b6000808211611496576040805160e560020a62461bcd02815260206004820152601a60248201527f536166654d6174683a206469766973696f6e206279207a65726f000000000000604482015290519081900360640190fd5b60008284816114a157fe5b04949350505050565b600160a060020a0381166114f25760405160e560020a62461bcd02815260040180806020018281038252602681526020018061155b6026913960400191505060405180910390fd5b60008054604051600160a060020a03808516939216917f8be0079c531659141344cd1fd0a4f28419497f9722a3daafe3b4186f6b6457e091a36000805473ffffffffffffffffffffffffffffffffffffffff1916600160a060020a039290921691909117905556fe4f776e61626c653a206e6577206f776e657220697320746865207a65726f20616464726573734552524f523a3a4143434553535f44454e49454400000000000000000000000053616e64626f78000000000000000000000000000000000000000000000000004f776e61626c653a2063616c6c6572206973206e6f7420746865206f776e6572a165627a7a72305820f438deb0849644fbded05f06c402c3b3c8e7e08640600b3bed193f72b2cfe3350029",
  "source": "pragma solidity 0.5.8;\n\nimport \"/home/ubuntu/etherisc/GIF/core/gif-contracts/contracts/Product.sol\";\n\n\ncontract SimpleProduct is Product {\n\n    event NewApplication(uint256 applicationId);\n    event NewPolicy(uint256 policyId);\n    event ApplicationDeclined(uint256 applicationId);\n    event NewClaim(uint256 policyId, uint256 claimId);\n    event NewPayout(uint256 claimId, uint256 payoutId, uint256 payoutAmount);\n    event PolicyExpired(uint256 policyId);\n    event PayoutConfirmation(uint256 payoutId, uint256 amount);\n\n    bytes32 public constant NAME = \"SimpleProduct\";\n    bytes32 public constant POLICY_FLOW = \"PolicyFlowDefault\";\n\n    constructor(address _productController)\n        public\n        Product(_productController, NAME, POLICY_FLOW)\n    {}\n\n    function applyForPolicy(\n        bytes32 _bpExternalKey,\n        uint256 _premium,\n        bytes32 _currency,\n        uint256[] calldata _payoutOptions\n    ) external onlySandbox {\n        uint256 applicationId = _newApplication(\n            _bpExternalKey,\n            _premium,\n            _currency,\n            _payoutOptions\n        );\n        emit NewApplication(applicationId);\n    }\n\n    function underwriteApplication(uint256 _applicationId) external onlySandbox {\n        uint256 policyId = _underwrite(_applicationId);\n        emit NewPolicy(policyId);\n    }\n\n    function declineApplication(uint256 _applicationId) external onlySandbox {\n        _decline(_applicationId);\n        emit ApplicationDeclined(_applicationId);\n    }\n\n    function newClaim(uint256 _policyId) external onlySandbox {\n        uint256 claimId = _newClaim(_policyId);\n        emit NewClaim(_policyId, claimId);\n    }\n\n    function confirmClaim(uint256 _claimId, uint256 _payoutAmount) external onlySandbox {\n        uint256 payoutId = _confirmClaim(_claimId, _payoutAmount);\n        emit NewPayout(_claimId, payoutId, _payoutAmount);\n    }\n\n    function expire(uint256 _policyId) external onlySandbox {\n        _expire(_policyId);\n        emit PolicyExpired(_policyId);\n    }\n\n    function confirmPayout(uint256 _payoutId, uint256 _amount) external onlySandbox {\n        _payout(_payoutId, _amount);\n        emit PayoutConfirmation(_payoutId, _amount);\n    }\n\n    function getQuote(uint256 _sum) external view returns (uint256 _premium) {\n        require(_sum > 0);\n        _premium = _sum.div(20);\n    }\n}\n",
  "sourcePath": "/home/ubuntu/etherisc/my-first-product/contracts/SimpleProduct.sol",
  "compiler": {
    "name": "solc",
    "version": "0.5.8+commit.23d335f2.Emscripten.clang"
  },
  "schemaVersion": "3.0.15",
  "updatedAt": "2019-09-07T20:29:19.233Z",
  "devdoc": {
    "methods": {
      "isOwner()": {
        "details": "Returns true if the caller is the current owner."
      },
      "owner()": {
        "details": "Returns the address of the current owner."
      },
      "renounceOwnership()": {
        "details": "Leaves the contract without owner. It will not be possible to call `onlyOwner` functions anymore. Can only be called by the current owner.     * > Note: Renouncing ownership will leave the contract without an owner, thereby removing any functionality that is only available to the owner."
      },
      "transferOwnership(address)": {
        "details": "Transfers ownership of the contract to a new account (`newOwner`). Can only be called by the current owner."
      }
    }
  },
  "userdoc": {
    "methods": {}
  }
}